:100000000C9435000C945D000C945D000C945D0024
:100010000C945D000C945D000C945D000C945D00EC
:100020000C945D000C945D000C945D000C945D00DC
:100030000C945D000C945D000C945D000C945D00CC
:100040000C943A020C945D000C9408020C94E201AA
:100050000C945D000C945D000C945D000C945D00AC
:100060000C9484020C945D000A0411241FBECFEF8F
:10007000D8E0DEBFCDBF11E0A0E0B1E0ECE8FEE0EB
:1000800002C005900D92AA35B107D9F722E0AAE582
:10009000B1E001C01D92AC31B207E1F710E0C5E359
:1000A000D0E004C02197FE010E945904C433D10757
:1000B000C9F70E94F0020C9444070C940000AF9220
:1000C000BF92CF92DF92EF92FF920F931F93CF9345
:1000D000DF936C017B018B01040F151FEB015E01A7
:1000E000AE18BF08C017D10759F06991D601ED913C
:1000F000FC910190F081E02DC6010995892B79F7DB
:10010000C501DF91CF911F910F91FF90EF90DF908C
:10011000CF90BF90AF900895FC01538D448D252F53
:1001200030E0842F90E0821B930B541710F0CF9691
:10013000089501970895FC01918D828D981761F0C3
:10014000A28DAE0FBF2FB11D5D968C91928D9F5FDA
:100150009F73928F90E008958FEF9FEF0895FC01B9
:10016000918D828D981731F0828DE80FF11D858D6C
:1001700090E008958FEF9FEF0895FC01918D228DFF
:10018000892F90E0805C9F4F821B91098F73992784
:1001900008958FE791E00E94BD0021E0892B09F4CA
:1001A00020E0822F089580E090E0892B29F00E94C2
:1001B000C90081110C9400000895FC01A48DA80FC2
:1001C000B92FB11DA35ABF4F2C91848D90E0019699
:1001D0008F739927848FA689B7892C93A089B189B9
:1001E0008C91837080648C93938D848D981306C05A
:1001F0000288F389E02D80818F7D80830895EF92BE
:10020000FF920F931F93CF93DF93EC0181E0888FD0
:100210009B8D8C8D98131AC0E889F989808185FFA0
:1002200015C09FB7F894EE89FF896083E889F98942
:1002300080818370806480839FBF81E090E0DF9144
:10024000CF911F910F91FF90EF900895F62E0B8D97
:1002500010E00F5F1F4F0F731127E02E8C8D8E1152
:100260000CC00FB607FCFACFE889F989808185FFB9
:10027000F5CFCE010E94DD00F1CFEB8DEC0FFD2F0D
:10028000F11DE35AFF4FF0829FB7F8940B8FEA8974
:10029000FB8980818062CFCFCF93DF93EC01888D83
:1002A0008823B9F0AA89BB89E889F9898C9185FDF1
:1002B00003C0808186FD0DC00FB607FCF7CF8C917F
:1002C00085FFF2CF808185FFEDCFCE010E94DD005A
:1002D000E9CFDF91CF9108953FB7F89480917701EE
:1002E00090917801A0917901B0917A0126B5A89BEF
:1002F00005C02F3F19F00196A11DB11D3FBFBA2FB8
:10030000A92F982F8827BC01CD01620F711D811D77
:10031000911D42E0660F771F881F991F4A95D1F7FC
:100320000895FC0101900020E9F73197AF01481BC7
:10033000590BBC018FE791E00C945F008F929F9264
:10034000AF92BF920F931F93CF93DF93CDB7DEB7DA
:10035000A1970FB6F894DEBF0FBECDBF19A24230F1
:1003600008F44AE08E010F5D1F4F842E912CB12CB2
:10037000A12CA50194010E943704E62FB901CA01FE
:10038000EA30F4F4E05DD801EE938D01232B242BA9
:10039000252B79F790E080E0109719F0CD010E94AD
:1003A0009101A1960FB6F894DEBF0FBECDBFDF91CD
:1003B000CF911F910F91BF90AF909F908F90089514
:1003C000E95CE1CF1F920F920FB60F9211242F9389
:1003D0003F934F935F936F937F938F939F93AF93CD
:1003E000BF93EF93FF938FE791E00E94DD00FF91B1
:1003F000EF91BF91AF919F918F917F916F915F919D
:100400004F913F912F910F900FBE0F901F90189515
:100410001F920F920FB60F9211242F938F939F93D9
:10042000EF93FF93E0918F01F09190018081E09133
:100430009501F091960182FD1BC0908180919801F9
:100440008F5F8F7320919901821741F0E09198019D
:10045000F0E0E158FE4F958F80939801FF91EF9166
:100460009F918F912F910F900FBE0F901F90189515
:100470008081F4CF1F920F920FB60F9211242F9309
:100480003F938F939F93AF93BF938091730190910C
:100490007401A0917501B09176013091720123E051
:1004A000230F2D3758F50196A11DB11D2093720120
:1004B0008093730190937401A0937501B0937601BA
:1004C0008091770190917801A0917901B0917A01A2
:1004D0000196A11DB11D8093770190937801A0939F
:1004E0007901B0937A01BF91AF919F918F913F9124
:1004F0002F910F900FBE0F901F90189526E8230F95
:100500000296A11DB11DD2CF1F920F920FB60F926E
:1005100011248F939F93EF93FF938091B900887F6D
:1005200080937E01E0917001F091710180917E01D4
:10053000EA59FE4F80838091B900E0917001F091FB
:100540007101887FE45AFE4F808380917001909101
:1005500071010196909371018093700180917E01E9
:10056000883A21F080917E01803B81F4E0915B012B
:10057000F0E0E050FF4F80818093BB0085EC8093DA
:10058000BC0080915B018F5F80935B0180917E0155
:10059000883B81F4E0915B01F0E0E050FF4F808107
:1005A0008093BB0085EC8093BC0080915B018F5FE2
:1005B00080935B0180917E01803C21F080917E01DF
:1005C000883C29F485EC8093BC0010925B01FF917C
:1005D000EF919F918F910F900FBE0F901F901895E4
:1005E000789484B5826084BD84B5816084BD85B50E
:1005F000826085BD85B5816085BD80916E0081601A
:1006000080936E00109281008091810082608093BF
:1006100081008091810081608093810080918000C1
:100620008160809380008091B10084608093B100EC
:100630008091B00081608093B00080917A008460E6
:1006400080937A0080917A00826080937A00809112
:100650007A00816080937A0080917A00806880932C
:100660007A001092C100E0918F01F091900182E038
:100670008083E0918B01F0918C011082E0918D01DB
:10068000F0918E018FEC808310929701E09193019D
:10069000F091940186E08083E0919101F0919201C4
:1006A000808180618083E0919101F091920180814D
:1006B00088608083E0919101F0919201808180684F
:1006C0008083E0919101F091920180818F7D808300
:1006D000EBE7F1E083E0DF011D928A95E9F7F894FA
:1006E00082E18093BA0085E48093BC00789480E234
:1006F00091E00E9491016091BA0070E090E080E08A
:1007000040E10E949E0190E4D92ECFE4D1E02EE09A
:10071000C22E00E011E030E0E32E30E0F32E8091B5
:100720007E01803AD1F48CE391E00E9491016091C6
:100730007B0170E090E080E04AE00E949E0187E546
:1007400091E00E94910181E491E00E94910187E58E
:1007500091E00E94910110927E010E946C012B0198
:100760003C0188EE882E83E0982EA12CB12C0E94AB
:100770006C016419750986099709683E7340810503
:100780009105A8F3B1E08B1A9108A108B10828EEF1
:10079000420E23E0521E611C711C81149104A104BD
:1007A000B10429F7D0927C0080917A008064809314
:1007B0007A0080917A0086FDFCCF9091780080913C
:1007C00079008927982789279F938F93DF93CF9369
:1007D0001F92CF921F930F930E945F0480E091E0DD
:1007E0000E94910187E591E00E9491018DB79EB72B
:1007F00008960FB6F8949EBF0FBE8DBFE114F104AA
:1008000009F48DCF0E94C900882309F488CF0E9483
:10081000000085CFEFE7F1E01382128288EE93E0CB
:10082000A0E0B0E084839583A683B78382E191E062
:100830009183808385EC90E09587848784EC90E0B9
:100840009787868780EC90E0918B808B81EC90E09D
:10085000938B828B82EC90E0958B848B86EC90E07E
:10086000978B868B118E128E138E148E0895A1E2B3
:100870001A2EAA1BBB1BFD010DC0AA1FBB1FEE1F1A
:10088000FF1FA217B307E407F50720F0A21BB30B65
:10089000E40BF50B661F771F881F991F1A9469F7E1
:1008A00060957095809590959B01AC01BD01CF013D
:1008B0000895EE0FFF1F0590F491E02D0994AEE02E
:1008C000B0E0E5E6F4E00C941B070D891E898F89E2
:1008D000988D26E02C831A83098397FF02C080E05D
:1008E00090E801979E838D83AE01455E5F4F698DD1
:1008F0007A8DCE0101960E948F044D815E8157FD55
:100900000AC02F813885421753070CF49A01020F51
:10091000131FF80110822E96E4E00C943707ABE029
:10092000B0E0E5E9F4E00C940D077C013B018A019D
:10093000FC0117821682838181FFC8C1CE01019616
:100940005C01F7019381F30193FD859193FF819100
:100950003F01882309F453C1853239F493FD859111
:1009600093FF81913F01853229F4B70190E00E9405
:100970007F06E7CF912C212C312CFFE1F31538F0C5
:100980008B3211F190F4803209F1833229F137FC76
:100990003CC020ED280F2A3050F536FE20C08AE0FA
:1009A000989E200D1124922E06C08D3291F0803336
:1009B00071F7689430F8F30193FD859193FF81916D
:1009C0003F018111DACF21C0689431F8689432F880
:1009D000F2CF689433F8EFCF689434F8ECCFEAE0C4
:1009E0002E9E200D1124222E689435F8E4CF8E32ED
:1009F00029F436FC04C1689436F8DDCF8C3619F43E
:100A0000689437F8D8CF8836B1F2982F9F7D9554E7
:100A10009330E0F08336A1F18337C1F1833509F0DB
:100A200063C02801F2E04F0E511CF801C080D18054
:100A3000692D70E036FC02C06FEF7FEFC6010E94A7
:100A400069064C01689437F882010AC00C5F1F4F99
:100A5000FFE3F98388248394912C6501E89437F8A7
:100A600033FE2DC0522C8114910471F5552009F4E8
:100A700068CFB70180E290E00E947F065A94F6CFDB
:100A8000F801808189830E5F1F4FE4CF2801F2E0D7
:100A90004F0E511CF801C080D180692D70E036FCEA
:100AA00002C06FEF7FEFC6010E9474064C01820105
:100AB000D5CFB70180E290E00E947F062A942814E7
:100AC000190409F0B0F7CECFF60137FC859137FE57
:100AD00081916F01B70190E00E947F0651105A94F6
:100AE000F1E08F1A9108BFCF843619F0893609F0EA
:100AF00077C0F80137FE6BC060817181828193817C
:100B00000C5F1F4FF32DFF763F2E97FF09C0909586
:100B10008095709561957F4F8F4F9F4F689437F800
:100B20002AE030E0A5010E94AF06C82ECA188C2C1E
:100B3000432C36FE0CC0E89440F8C91440F434FE4F
:100B400005C032FC03C0F32DFE7E4F2E892C44FEDF
:100B500095C0FE01EC0DF11D8081803309F087C046
:100B6000242D297E422E842D8870582E43FC95C05A
:100B700040FE8FC09C2C821418F42C0C922C9818D8
:100B800044FE91C0B70180E390E00E947F0642FEE0
:100B900009C088E790E041FE02C088E590E0B70117
:100BA0000E947F06C91408F48AC0CA94D12C9FEF12
:100BB000C91AD90ACA0CDB1CF60182916F01B70170
:100BC00090E00E947F06AC14BD04B1F74FCF608166
:100BD0007181072E000C880B990B0E5F1F4F92CF6F
:100BE000D32CE894D4F82AE030E0853739F1232D6E
:100BF000297FD22E8F3601F148F48835A9F0F7010C
:100C0000868197812B96E2E10C942907803749F081
:100C10008837A9F7D4FE02C06894D2F820E130E00A
:100C20000DC06894D4F8F6CF34FE03C0822F8660DE
:100C3000D82E20E132E002C028E030E0F801D7FEF3
:100C40000FC060817181828193810C5F1F4FA5016C
:100C50000E94AF06C82ECA183D2CE89437F867CF1B
:100C60006081718190E080E00E5F1F4FF0CF42FC09
:100C700002C0839478CF8394839475CF842D867833
:100C800009F471CFF6CFB70180E290E00E947F06B1
:100C900083948214C0F3512C73CF522C58188214B1
:100CA00008F46ECFF8CF842D867809F47BCF8BE2E1
:100CB00041FE80E247FC8DE2B70190E071CFB701C1
:100CC00080E390E00E947F069A946CCF8FEF9FEFB5
:100CD00099CFFC010590615070400110D8F78095C4
:100CE00090958E0F9F1F0895FC01615070400190F8
:100CF0000110D8F7809590958E0F9F1F08950F9340
:100D00001F93CF93DF93182F092FEB018B8181FD68
:100D100009C01FEF0FEF812F902FDF91CF911F910F
:100D20000F91089582FF14C02E813F818C819D8197
:100D3000281739073CF4E881F981CF01019699839E
:100D4000888310838E819F8101969F838E83E3CF5A
:100D5000E885F985812F0995892BA1F3DACFFA016E
:100D6000AA27283051F1203181F1E8946F936E7FEA
:100D70006E5F7F4F8F4F9F4FAF4FB1E03ED0B4E0DB
:100D80003CD0670F781F891F9A1FA11D680F791F1C
:100D90008A1F911DA11D6A0F711D811D911DA11D2D
:100DA00020D009F468943F912AE0269F112430193D
:100DB000305D3193DEF6CF010895462F4770405DD8
:100DC0004193B3E00FD0C9F7F6CF462F4F70405D87
:100DD0004A3318F0495D31FD4052419302D0A9F7E2
:100DE000EACFB4E0A6959795879577956795BA95DC
:100DF000C9F700976105710508959B01AC010A2EA2
:100E000006945795479537952795BA95C9F7620F78
:100E1000731F841F951FA01D08952F923F924F921C
:100E20005F926F927F928F929F92AF92BF92CF927A
:100E3000DF92EF92FF920F931F93CF93DF93CDB783
:100E4000DEB7CA1BDB0B0FB6F894DEBF0FBECDBFFB
:100E500009942A88398848885F846E847D848C84CC
:100E60009B84AA84B984C884DF80EE80FD800C81D5
:100E70001B81AA81B981CE0FD11D0FB6F894DEBFB8
:0C0E80000FBECDBFED010895F894FFCF28
:100E8C00484F4C41204D554E444F0D0A0000000078
:100E9C000000FF005F008C004C01BD009B00AF0008
:100EAC0049324320534C41564520494E49543A202F
:100EBC00736C6176652041444452200072783A206C
:100ECC000073746F70207265636569766564006188
:0A0EDC0064633A202564200D0A002B
:107E0000112484B714BE81FFF0D085E080938100F7
:107E100082E08093C00088E18093C10086E0809377
:107E2000C20080E18093C4008EE0C9D0259A86E02C
:107E300020E33CEF91E0309385002093840096BBD3
:107E4000B09BFECF1D9AA8958150A9F7CC24DD24C4
:107E500088248394B5E0AB2EA1E19A2EF3E0BF2EE7
:107E6000A2D0813461F49FD0082FAFD0023811F036
:107E7000013811F484E001C083E08DD089C08234E0
:107E800011F484E103C0853419F485E0A6D080C0E4
:107E9000853579F488D0E82EFF2485D0082F10E0AE
:107EA000102F00270E291F29000F111F8ED06801E7
:107EB0006FC0863521F484E090D080E0DECF843638
:107EC00009F040C070D06FD0082F6DD080E0C81688
:107ED00080E7D80618F4F601B7BEE895C0E0D1E017
:107EE00062D089930C17E1F7F0E0CF16F0E7DF06D8
:107EF00018F0F601B7BEE89568D007B600FCFDCFD4
:107F0000A601A0E0B1E02C9130E011968C91119780
:107F100090E0982F8827822B932B1296FA010C0160
:107F200087BEE89511244E5F5F4FF1E0A038BF0790
:107F300051F7F601A7BEE89507B600FCFDCF97BE46
:107F4000E89526C08437B1F42ED02DD0F82E2BD052
:107F50003CD0F601EF2C8F010F5F1F4F84911BD097
:107F6000EA94F801C1F70894C11CD11CFA94CF0C13
:107F7000D11C0EC0853739F428D08EE10CD085E9AC
:107F80000AD08FE07ACF813511F488E018D01DD067
:107F900080E101D065CF982F8091C00085FFFCCF94
:107FA0009093C60008958091C00087FFFCCF809118
:107FB000C00084FD01C0A8958091C6000895E0E648
:107FC000F0E098E1908380830895EDDF803219F02E
:107FD00088E0F5DFFFCF84E1DECF1F93182FE3DFCA
:107FE0001150E9F7F2DF1F91089580E0E8DFEE27F6
:047FF000FF270994CA
:027FFE00040479
:0400000300007E007B
:00000001FF
